:100000000C9444000C94B7010C9461000C946100B2
:100010000C9461000C9461000C9461000C945F01DD
:100020000C9461000C9461000C9461000C946100CC
:100030000C9461000C9461000C9461000C946100BC
:100040000C9461000C9461000C9461000C946100AC
:100050000C9461000C9461000C9461000C9461009C
:100060000C9461000C9461007A068806A206BC0616
:10007000D606F0060A0724073E07580772078C07C2
:10008000A607C00700083E0811241FBECFEFD8E026
:10009000DEBFCDBF13E0A0E0B1E0E0E2F1E202C0DC
:1000A00005900D92A239B107D9F723E0A2E9B3E098
:1000B00001C01D92A13AB207E1F70E946E0A0C94AA
:1000C0008E100C9400009093C5008093C40088E1CA
:1000D0008093C10086E08093C20008959091C00093
:1000E00095FFFCCF8093C60008950F931F93CF9385
:1000F000DF938C01C0E0D0E003C021960E946E0027
:10010000F801EC0FFD1F80818111F7CFDF91CF91B6
:100110001F910F910895CF93DF93CDB7DEB760970E
:100120000FB6F894DEBF0FBECDBFAB01BE016F5F4F
:100130007F4F0E945C0DCE0101960E947500609673
:100140000FB6F894DEBF0FBECDBFDF91CF910895FB
:10015000CF92DF92EF92FF92CF93DF93CDB7DEB7CE
:1001600060970FB6F894DEBF0FBECDBF6B017C0168
:100170000E94AD0BDC01CB014AE050E0BE016F5F95
:100180007F4F0E945C0DCE0101960E94750082E2B5
:1001900091E00E94750020E030E04AE754E4C70196
:1001A000B6010E949A0C0E94AD0BDC01CB014AE023
:1001B00050E0BE016F5F7F4F0E945C0DCE01019643
:1001C0000E94750060960FB6F894DEBF0FBECDBFDB
:1001D000DF91CF91FF90EF90DF90CF9008958091C5
:1001E000C0008823E4F78091C60008958091C00084
:1001F000807808950F931F93CF93DF93CDB7DEB729
:1002000060970FB6F894DEBF0FBECDBF00E010E0E0
:1002100008C000E010E005C000E010E002C000E00F
:1002200010E00E94EF00E1E0F0E0EC0FFD1FE00FB6
:10023000F11F80839981903261F39A3069F39D3088
:1002400071F38A3039F08D3029F0803219F00F3097
:10025000110561F4E1E0F0E0EC0FFD1FE00FF11F8C
:100260001082CE0101960E943E0D03C00F5F1F4F0A
:10027000D8CF60960FB6F894DEBF0FBECDBFDF912A
:10028000CF911F910F9108958AB18B7F8AB982E037
:100290008093B0008093B10080ED8093B300E0E7DD
:1002A000F0E0808182608083F894E9E6F0E080816C
:1002B000826080838DB381608DBB789408951F9296
:1002C0000F920FB60F9211242F933F934F935F938A
:1002D0008F939F93EF93FF934A9B19C080919D0347
:1002E0008823A9F090E0019721E030E0A90102C045
:1002F000440F551F8A95E2F7CA0120919B03309164
:100300009C03822B932B90939C0380939B0380915F
:100310009D038F5F80939D038930E0F080919B0364
:1003200090919C039093A00380939F0381E080931E
:100330009E0310929C0310929B0310929D03E0E792
:10034000F0E080818D7F80838CB381608CBB8DB326
:1003500081608DBBFF91EF919F918F915F914F9144
:100360003F912F910F900FBE0F901F9018951F92E5
:100370000F920FB60F9211248F93EF93FF938DB3CB
:100380008E7F8DBB88E68093B20087B3826087BB87
:10039000E0E7F0E0808182608083FF91EF918F91B0
:1003A0000F900FBE0F901F90189580919E03882389
:1003B000E1F310929E0380919F039091A003089512
:1003C00080919E030895F999FECF92BD81BD8FB3B0
:1003D00081608FBB80B508950F931F93CF938C01DD
:1003E000C62FF999FECFC8010E94E3018C1749F08E
:1003F00012BD01BDC0BD8FB384608FBB8FB382605F
:100400008FBBCF911F910F9108950F931F93CF939F
:10041000DF938C0184E291E00E9475006AE070E055
:10042000F801808191810E948B008EE391E00E940F
:10043000750080E090E012C0EC012196FE01EE0F05
:10044000FF1FE00FF11F6AE070E0808191810E9440
:100450008B0089EC91E00E947500CE0185309105FA
:100460005CF380E591E00E947500C0E0D0E011C02F
:10047000FE013696EE0FFF1FE00FF11F6AE070E0FD
:10048000808191810E948B0089EC91E00E9475002F
:100490002196C530D10564F382E691E00E94750093
:1004A0006AE070E0F801868997890E948B008BE7EB
:1004B00091E00E9475006AE070E0F801808D918DF6
:1004C0000E948B0084E991E00E947500F801628D22
:1004D000738D848D958D0E94A80082EA91E00E9420
:1004E0007500F801668D778D80A191A10E94A8000A
:1004F00084E093E00E947500DF91CF911F910F91EE
:1005000008950F931F93CF93DF938C01F894C0E06D
:10051000D0E010C0209731F462E280E090E00E94C9
:10052000EC0107C0FC013197E00FF11F60810E94D0
:10053000EC012196CE01C332D10560F37894DF91AE
:10054000CF911F910F910895DF92EF92FF920F9339
:100550001F93CF93DF937C01F89480E090E00E949A
:10056000E30191E0823209F090E0D92E823281F4E9
:100570000AC087010C0F1D1F2196CE010E94E301C6
:10058000F801808302C0C0E0D0E0C232D10588F318
:1005900078948D2DDF91CF911F910F91FF90EF9067
:1005A000DF90089584B1826084B984B1846084B995
:1005B00082EA809380008AE1809381008FE39CE946
:1005C000909387008093860088EE93E09093890053
:1005D0008093880090938B0080938A000895843FD5
:1005E00021E0920728F0813629E0920720F405C027
:1005F00084EF91E002C080E699E0880F991F909304
:100600008900809388000895843F21E0920728F0B4
:10061000813629E0920720F405C084EF91E002C002
:1006200080E699E0880F991F90938B0080938A0051
:100630000895853B08F084EB613091F4282F30E079
:10064000ACE6B7E00E942F0D24EB30E040E050E034
:100650000E94070DC9018C509E4F0E94EF02089521
:10066000282F30E0ACE6B7E00E942F0D24EB30E0FD
:1006700040E050E00E94070DC9018C509E4F0E943F
:1006800004030895863A1CF08B351CF403C086EAF7
:1006900001C08AE5865A0E9419030895982F929501
:1006A0009F7020E2629FB0011124962B906198B94F
:1006B00095E09A95F1F7000098B19F7E98B925E0F2
:1006C0002A95F1F700008F70682B606168B985E0AA
:1006D0008A95F1F7000088B18F7E88B98FE891E0A4
:1006E0000197F1F700C000000895CF93DF93EC016C
:1006F00004C0219661E00E944E0388818111F9CFE8
:10070000DF91CF910895CF93DF93CDB7DEB7609798
:100710000FB6F894DEBF0FBECDBFAB01BE016F5F59
:100720007F4F0E945C0DCE0101960E94750360967A
:100730000FB6F894DEBF0FBECDBFDF91CF91089505
:100740008F929F92AF92BF92CF92DF92EF92FF92E1
:100750000F931F93CF93DF93CDB7DEB760970FB69C
:10076000F894DEBF0FBECDBF4B015C0120E030E04E
:10077000A9010E94A80B882344F482EB91E00E9417
:100780007503B7FAB094B7F8B094C501B4010E94EC
:10079000AD0B6B017C014AE050E08E010F5F1F4FF3
:1007A000B801C6010E945C0DC8010E94750382E277
:1007B00091E00E947503B601DD0C880B990B0E9435
:1007C000E50B9B01AC01C501B4010E943B0B20E08D
:1007D00030E04AE754E40E949A0C0E94AD0B7F93EC
:1007E0006F9384EB91E09F938F931F930F930E94DD
:1007F000940DC8010E9475030F900F900F900F90F9
:100800000F900F9060960FB6F894DEBF0FBECDBF6D
:10081000DF91CF911F910F91FF90EF90DF90CF90DC
:10082000BF90AF909F908F90089560E081E00E940C
:100830004E038FE39FE10197F1F700C00000089598
:100840008FEF87B918B88FE59AEE0197F1F700C0DE
:10085000000060E070E083E090E00E944E038FE1D2
:100860009EE40197F1F700C0000060E070E083E0D3
:1008700090E00E944E038FE891E00197F1F700C0ED
:10088000000060E070E083E090E00E944E038FE1A2
:100890009EE40197F1F700C0000060E070E082E0A4
:1008A00090E00E944E038FE99FE00197F1F700C0AE
:1008B000000060E070E088E290E00E944E038FE963
:1008C0009FE00197F1F700C0000060E070E08CE06D
:1008D00090E00E944E038FE99FE00197F1F700C07E
:1008E000000060E070E086E090E00E944E038FE937
:1008F0009FE00197F1F700C000000E9415040895E1
:10090000962F813011F080E801C080EC60E0890F03
:100910000E944E0308958AB18F7D8AB98BB180629F
:100920008BB98AB18F7E8AB98BB180618BB98AB15C
:100930008F7B8AB98BB180648BB9089589B1829518
:100940008695877091E089278170089589B1829595
:100950008F7091E089278170089589B1829586957D
:100960008695837091E0892781700895CF93C62F73
:1009700061E00E94420362E08C2F0E944203CF910B
:1009800008958F929F92AF92BF92CF92DF92EF9293
:10099000FF920F931F93CF93DF93EC01CB01BA012A
:1009A00020E030E040E85FE30E943C0B20E030E0D4
:1009B00040E05FE30E949A0C20E030E040E850E421
:1009C0000E949A0C6B017C010E94AD0B162F01E076
:1009D000060F062E000C770B880B990B0E94E50B77
:1009E0009B01AC01C701B6010E943B0B6B017C016E
:1009F000053014F004E014E0812F110F990BFC0175
:100A00003196EE0FFF1FEC0FFD1F1081E02F000F3E
:100A1000FF0BDF011196AA0FBB1FAC0FBD1F6C911E
:100A2000DC011696AA0FBB1FAC0FBD1F0C913696AA
:100A3000EE0FFF1FEC0FFD1FC081062E000C770B81
:100A4000611B710917FD7395072E000C880B990B1C
:100A50000E94E50BA70196010E949A0C4B015C01D4
:100A6000612F110F770B880B990B0E94E50BA501E5
:100A700094010E943C0B0E94AD0BD62F6C2FCC0F23
:100A8000770B601B710907FD7395072E000C880B0F
:100A9000990B0E94E50BA70196010E949A0C6B012D
:100AA0007C01602F000F770B880B990B0E94E50BE0
:100AB000A70196010E943C0B0E94AD0BC62F61E07E
:100AC0008D2F0E94420362E08C2F0E944203DF912F
:100AD000CF911F910F91FF90EF90DF90CF90BF903B
:100AE000AF909F908F900895FC011082FA011082C0
:100AF0000E94150460E080E00E9480048FEC92E088
:100B00000E947503FFEF23ED80E3F1502040804009
:100B1000E1F700C000000E94150408958F929F9293
:100B2000AF92BF92CF92DF92EF92FF920F931F93FB
:100B3000CF93DF934C017B015A016901E80160E02A
:100B400080E00E948004C4010E94750360E081E09F
:100B50000E9480046AE070E0888199810E9483038A
:100B6000F7018081882391F0F5018081882329F0A5
:100B700088819981019699838883F60180818823F1
:100B800029F088819981019799838883DF91CF919A
:100B90001F910F91FF90EF90DF90CF90BF90AF909B
:100BA0009F908F900895EF92FF920F931F93CF9392
:100BB000DF9300D0CDB7DEB77C018B010E94AD047E
:100BC000882319F181E090919A03911180E080933C
:100BD0009A03882349F06FE081E00E94800489EB4A
:100BE00091E00E94750308C06FE081E00E948004DC
:100BF00089EC91E00E9475032FEF83EC99E021507E
:100C000080409040E1F700C0000080919A0381117C
:100C10004DC00E949E04882379F00E94A604882378
:100C200059F00E94AD04811107C04AE953E0B701B1
:100C3000C8010E9474054AC20E949E048823C9F01C
:100C40008091990390E001968F709078992324F415
:100C50000197806F9F6F019680939903EFEFF3ECFC
:100C600029E0E150F0402040E1F700C000000E9480
:100C700015040E94A6048823C9F08091990390E08E
:100C80000F968F709078992324F40197806F9F6F4F
:100C90000196809399038FEF93ECE9E081509040A7
:100CA000E040E1F700C000000E9415040E949E048D
:100CB00089830E94A6048A8390919A03992369F0FC
:100CC0009981911102C0882341F060E081E00E9487
:100CD00080048BEB91E00E947503E09199038E2FC5
:100CE00090E08031910508F0DEC1FC01EC5CFF4F23
:100CF0000C94290D87019E012E5F3F4FAE014F5F7F
:100D00005F4F6AE973E08BEC91E00E948E05CBC1E6
:100D100087010E5F1F4F9E012E5F3F4FAE014F5F59
:100D20005F4F6AE973E082EE91E00E948E05809148
:100D30009A03882309F4B7C1F701648582810E9470
:100D4000B604B1C18701045F1F4F9E012E5F3F4F64
:100D5000AE014F5F5F4F6AE973E083EF91E00E945D
:100D60008E0580919A03882309F49DC1F70164855B
:100D700082810E94B60497C187010C5F1F4F9E01BC
:100D80002E5F3F4FAE014F5F5F4F6AE973E084E033
:100D900092E00E948E0580919A03882309F483C112
:100DA000F701668584810E94B6047DC18701025FD8
:100DB0001F4F9E012E5F3F4FAE014F5F5F4F6AE9AD
:100DC00073E085E192E00E948E0580919A0388236A
:100DD00009F469C1F701668584810E94B60463C184
:100DE00087010A5F1F4F9E012E5F3F4FAE014F5F8D
:100DF0005F4F6AE973E086E292E00E948E0580917F
:100E00009A03882309F44FC1F701608986810E9403
:100E1000B60449C18701005F1F4F9E012E5F3F4FFF
:100E2000AE014F5F5F4F6AE973E086E392E00E9494
:100E30008E0580919A03882309F435C1F7016089F2
:100E400086810E94B6042FC18701085F1F4F9E0153
:100E50002E5F3F4FAE014F5F5F4F6AE973E086E45C
:100E600092E00E948E0580919A03882309F41BC1A9
:100E7000F701628980850E94B60415C187010E5E64
:100E80001F4F9E012E5F3F4FAE014F5F5F4F6AE9DC
:100E900073E086E592E00E948E0580919A03882394
:100EA00009F401C1F701628980850E94B604FBC084
:100EB0008701065F1F4F9E012E5F3F4FAE014F5FC0
:100EC0005F4F6AE973E086E692E00E948E058091AA
:100ED0009A03882309F4E7C0F701648982850E9498
:100EE000B604E1C087010C5E1F4F9E012E5F3F4F8D
:100EF000AE014F5F5F4F6AE973E087E792E00E94BF
:100F00008E0580919A03882309F4CDC0F701648986
:100F100082850E94B604C7C087010A5E1F4F9E01EA
:100F20002E5F3F4FAE014F5F5F4F6AE973E088E885
:100F300092E00E948E0580919A03882309F4B3C041
:100F4000F701608D86890E94B604ADC08701085EF6
:100F50001F4F9E012E5F3F4FAE014F5F5F4F6AE90B
:100F600073E08EE992E00E948E0580919A038823B7
:100F700009F499C0F701608D86890E94B60493C078
:100F800060E080E00E94800484EB92E00E947503A0
:100F900060E081E00E948004F701628D738D848D92
:100FA000958D0E94A00380919A03882309F47BC049
:100FB0008981882381F02FE632E143E85AE3F70183
:100FC000628D738D848D958D0E943C0BF701628F2D
:100FD000738F848F958F8A81882309F464C02FE6EC
:100FE00032E143E85AE3F701628D738D848D958D6C
:100FF0000E943B0BF701628F738F848F958F53C0D4
:1010000060E080E00E9480048FEB92E00E94750314
:1010100060E081E00E948004F701668D778D80A1F9
:1010200091A10E94A00380919A038823E1F1898114
:10103000882381F02FE632E143E85AE3F701668D19
:10104000778D80A191A10E943C0BF701668F778F6D
:1010500080A391A38A81882331F12FE632E143E80E
:101060005AE3F701668D778D80A191A10E943B0B19
:10107000F701668F778F80A391A315C060E080E0B1
:101080000E9480048CEC92E00E94750380919A0388
:10109000882349F0F801108210929A031092990364
:1010A0000E94150413C08981811103C08A8188239D
:1010B00069F080919A03882349F0FFEF23EC89E0DF
:1010C000F15020408040E1F700C000000F900F90E9
:1010D000DF91CF911F910F91FF90EF900895CF93E3
:1010E000DF93833629F5EB0184ED92E00E947500D1
:1010F00086EE92E00E94750087EF92E00E947500F4
:101100000E94FA008130910519F0039729F00CC074
:10111000CE010E9405020CC0CE010E94810286E031
:1011200093E00E94750004C084E193E00E94750082
:10113000DF91CF910895CF92DF92EF92FF920F93BC
:101140001F93CF93DF936C01E62EF12CC70101971B
:10115000C1E0D0E002C0CC0FDD1F8A95E2F700E0CD
:1011600010E00EC0CE018C219D21892B11F081E36E
:1011700001C080E30E946E00D595C7950F5F1F4F99
:101180000E151F057CF3DF91CF911F910F91FF90FA
:10119000EF90DF90CF900895482F90E08FEF10C030
:1011A000242F30E0092E02C0359527950A94E2F7E6
:1011B00020FF05C08F3F11F4892F01C08EEF9F5F84
:1011C000953070F308954F925F926F927F928F9255
:1011D0009F92AF92BF92CF92DF92EF92FF920F93C6
:1011E0001F93CF93C82F5B017A0189018295869561
:1011F0008770823009F053C180919803C81709F4B1
:1012000089C0FB01208131818091960390919703E1
:101210008217930708F053C0CC2ED12C65E0C6018D
:101220000E949B088AE00E946E008C2F0E94CC08CE
:101230008823B4F1682F880F770B880B990B0E94D5
:10124000E50B20E030E040E05FE30E949A0C20E0F4
:1012500030E040E85FE30E943B0B609392037093A1
:1012600093038093940390939503F701108284E293
:1012700093E00E94750060919203709193038091B6
:101280009403909195030E94AD0BDC01CB016AE0C1
:1012900070E00E948B0084E093E00E94750033C0F0
:1012A0008E3F89F583E393E00E94750065E0C601F7
:1012B0000E949B0884E093E00E94750024C0109275
:1012C0009203109293031092940310929503F801E5
:1012D000408051806280738027E137EB41ED58E315
:1012E000C301B2010E94A80B88236CF427E137EBFD
:1012F00041ED58EBC301B2010E94950C18161CF485
:1013000081E0F7018083C0939803109297031092B5
:10131000960309C08091960390919703019690934C
:10132000970380939603F801C080D180E280F38018
:1013300040909203509093036090940370909503B3
:10134000A3019201C701B6010E94A80B882309F4EA
:10135000B5C020E030E0A901C701B6010E94950C9C
:1013600018160CF04EC0A3019201C701B6010E94ED
:10137000A80B88231CF5A7019601C301B2010E94A6
:101380003B0BF501828C938CA48CB58CA501940148
:101390000E94A80B882334F4F801408251826282B3
:1013A00073828CC0A5019401C701B6010E943C0B59
:1013B000F801608371838283938380C0A3019201CB
:1013C000C701B6010E943B0BF501868C978CA0A04B
:1013D000B1A0A50194010E94A80B882334F4F80160
:1013E000408251826282738269C0A5019401C70163
:1013F000B6010E943B0BF801608371838283938363
:101400005DC0A3019201C701B6010E94A80B882309
:101410001CF5A7019601C301B2010E943B0BF50127
:10142000868C978CA0A0B1A0A50194010E94A80B66
:10143000882334F4F80140825182628273823EC074
:10144000A5019401C701B6010E943C0BF80160831D
:1014500071838283938332C0A3019201C701B601D5
:101460000E943B0BF501828C938CA48CB58CA5015A
:1014700094010E94A80B882334F4F8014082518221
:10148000628273821BC0A5019401C701B6010E944C
:101490003B0BF80160837183828393830FC081E0EB
:1014A000FA01808310929203109293031092940396
:1014B0001092950387E493E00E947500CF911F91ED
:1014C0000F91FF90EF90DF90CF90BF90AF909F90E3
:1014D0008F907F906F905F904F900895CF93DF93A0
:1014E000CDB7DEB7A8970FB6F894DEBF0FBECDBF5D
:1014F00082E2E0E0F1E0DE01119601900D928A9522
:10150000E1F780E190E00E946300CE0101960E9425
:10151000A402882329F081E593E00E94750004C0AD
:1015200080E693E00E947500CE0101960E940502BC
:101530000E94D2020E9444010E9420040E948B0457
:101540001BA21CA21DA21EA281E08FA318A6F12C33
:101550000E94F600882339F00E94EF00BE016F5F01
:101560007F4F0E946F0888A5811179C00E94E00119
:10157000882371F00E94D501F82E9E012D5D3F4F0A
:10158000AE01495D5F4FBE016F5F7F4F0E94E30870
:101590008FA1882329F0698D8F890E94B60408C025
:1015A0004BA15CA16DA17EA1CE0101960E94C10458
:1015B00060E080E00E94800404E010E015C08F2D00
:1015C00090E0002E02C0959587950A94E2F780FF7F
:1015D00005C086E793E00E94750304C082EB91E0AA
:1015E0000E9475030150110911234CF760E081E05E
:1015F0000E94800488E793E00E9475038FA18823EE
:1016000029F08EE793E00E9475030AC06BA17CA1CC
:101610008DA19EA10E94A00384EC91E00E9475031D
:101620000E949E048823D9F00E94A6048823B9F062
:101630000E94AD04811113C081E088A70E941504A7
:1016400086E893E00E9475032FEF83ED90E321502D
:1016500080409040E1F700C000000E94150488A57A
:10166000813009F075CFBE01685D7F4FCE010196D4
:101670000E94D3056DCF5058BB27AA270E94530B59
:101680000C945B0C0E944D0C38F00E94540C20F01E
:1016900039F49F3F19F426F40C944A0C0EF4E095AB
:1016A000E7FB0C94440CE92F0E946C0C58F3BA171A
:1016B000620773078407950720F079F4A6F50C9468
:1016C0008E0C0EF4E0950B2EBA2FA02D0B01B90154
:1016D00090010C01CA01A0011124FF27591B99F0A8
:1016E000593F50F4503E68F11A16F040A22F232FB4
:1016F000342F4427585FF3CF469537952795A79504
:10170000F0405395C9F77EF41F16BA0B620B730BAA
:10171000840BBAF09150A1F0FF0FBB1F661F771F1B
:10172000881FC2F70EC0BA0F621F731F841F48F4D0
:10173000879577956795B795F7959E3F08F0B0CF59
:101740009395880F08F09927EE0F97958795089540
:101750000E94200C08F481E008950E94B40B689464
:10176000B1110C948F0C08950E94740C88F09F574F
:1017700098F0B92F9927B751B0F0E1F0660F771FB5
:10178000881F991F1AF0BA95C9F714C0B13091F0AB
:101790000E948E0CB1E008950C948E0C672F782F68
:1017A0008827B85F39F0B93FCCF386957795679570
:1017B000B395D9F73EF490958095709561957F4FDC
:1017C0008F4F9F4F0895E89409C097FB3EF4909582
:1017D0008095709561957F4F8F4F9F4F9923A9F00A
:1017E000F92F96E9BB279395F69587957795679599
:1017F000B795F111F8CFFAF4BB0F11F460FF1BC0DD
:101800006F5F7F4F8F4F9F4F16C0882311F096E96F
:1018100011C0772321F09EE8872F762F05C066231D
:1018200071F096E8862F70E060E02AF09A95660FD6
:10183000771F881FDAF7880F9695879597F908958F
:10184000990F0008550FAA0BE0E8FEEF16161706D1
:10185000E807F907C0F012161306E407F50798F039
:10186000621B730B840B950B39F40A2661F0232B52
:10187000242B252B21F408950A2609F4A140A695CE
:101880008FEF811D811D089597F99F6780E870E0B3
:1018900060E008959FEF80EC089500240A941616E6
:1018A000170618060906089500240A94121613064E
:1018B000140605060895092E0394000C11F48823DC
:1018C00052F0BB0F40F4BF2B11F460FF04C06F5FF8
:1018D0007F4F8F4F9F4F089557FD9058440F551FCE
:1018E00059F05F3F71F04795880F97FB991F61F0A2
:1018F0009F3F79F087950895121613061406551F19
:10190000F2CF4695F1DF08C0161617061806991F84
:10191000F1CF86957105610508940895E894BB2779
:1019200066277727CB0197F908950E94200C08F4C9
:101930008FEF08950E94AD0C0C945B0C0E944D0C2F
:1019400038F00E94540C20F0952311F00C94440CB4
:101950000C944A0C11240C948F0C0E946C0C70F3A4
:10196000959FC1F3950F50E0551F629FF001729F44
:10197000BB27F00DB11D639FAA27F00DB11DAA1F53
:10198000649F6627B00DA11D661F829F2227B00DA0
:10199000A11D621F739FB00DA11D621F839FA00D2B
:1019A000611D221F749F3327A00D611D231F849F7B
:1019B000600D211D822F762F6A2F11249F575040D2
:1019C0009AF0F1F088234AF0EE0FFF1FBB1F661F4D
:1019D000771F881F91505040A9F79E3F510580F016
:1019E0000C94440C0C948F0C5F3FE4F3983ED4F3BA
:1019F000869577956795B795F795E7959F5FC1F7BA
:101A0000FE2B880F911D9695879597F90895A1E271
:101A10001A2EAA1BBB1BFD010DC0AA1FBB1FEE1F68
:101A2000FF1FA217B307E407F50720F0A21BB30BB3
:101A3000E40BF50B661F771F881F991F1A9469F72F
:101A400060957095809590959B01AC01BD01CF018B
:101A50000895EE0FFF1F0590F491E02D0994A29FC9
:101A6000B001B39FC001A39F700D811D1124911D72
:101A7000B29F700D811D1124911D0895FC018827CE
:101A80009927E89421912032E9F3293010F02E3083
:101A9000C8F32B3241F02D3239F4689404C00E940F
:101AA000720D820F911D219120532A30C0F31EF434
:101AB000909581959F4F08954532510520F442300D
:101AC00010F00C94670DFB011082CB010895BB2729
:101AD0004A3031F4992322F4BDE2909581959F4FCD
:101AE0000C947B0D7AE0979F902D879F802D910D10
:101AF00011240895BB27FB015527AA27880F991F9A
:101B0000AA1FA41710F0A41B83955051B9F7A05D2C
:101B1000AA3308F0A95DA193009779F7B111B193A9
:101B20001192CB010C94AD0FAEE0B0E0EAE9FDE01C
:101B30000C9465100D891E8986E08C831A830983B5
:101B40008FEF9FE79E838D83AE01475E5F4F6F8966
:101B5000788DCE0101960E94B60DEF81F885E00FD9
:101B6000F11F10822E96E4E00C948110ABE0B0E0FF
:101B7000ECEBFDE00C9457106C017B018A01FC0139
:101B800017821682838181FFCCC1CE0101963C0170
:101B9000F6019381F70193FD859193FF81917F0178
:101BA000882309F4BAC1853239F493FD859193FFF6
:101BB00081917F01853229F4B60190E00E94BD0F2A
:101BC000E7CF912C212C312CFFE1F315D8F08B328B
:101BD00079F038F4803279F08332A1F4232D20613A
:101BE0001DC08D3261F0803369F4232D216016C051
:101BF000832D8260382EE32DE4603E2E2AC0F32D23
:101C0000F8601DC037FC2DC020ED280F2A3040F0B1
:101C10008E32B9F436FC81C1232D2064322E19C0D6
:101C200036FE06C08AE0989E200D1124922E11C027
:101C3000EAE02E9E200D1124222EF32DF0623F2E7D
:101C400008C08C3621F4832D8068382E02C0883677
:101C500041F4F70193FD859193FF81917F018111FB
:101C6000B3CF982F9F7D9554933028F40C5F1F4F6E
:101C70009FE399830DC0833631F0833771F083354C
:101C800009F059C021C0F801808189830E5F1F4F80
:101C900088248394912C530113C02801F2E04F0E45
:101CA000511CF801A080B18036FE03C0692D70E0A0
:101CB00002C06FEF7FEFC5010E94A20F4C018201AD
:101CC000F32DFF773F2E16C0280122E0420E511C53
:101CD000F801A080B18036FE03C0692D70E002C01B
:101CE0006FEF7FEFC5010E94970F4C01F32DF06855
:101CF0003F2E820133FC1BC0822D90E0881699068E
:101D0000B0F4B60180E290E00E94BD0F2A94F4CFB7
:101D1000F50137FC859137FE81915F01B60190E0B6
:101D20000E94BD0F21102A9421E0821A910881148B
:101D3000910471F7E8C0843611F0893641F5F80155
:101D400037FE07C060817181828193810C5F1F4FD4
:101D500008C060817181072E000C880B990B0E5F03
:101D60001F4FF32DFF763F2E97FF09C0909580956A
:101D7000709561957F4F8F4F9F4FF0683F2E2AE0FF
:101D800030E0A3010E94F90F882E861845C08537E0
:101D900031F4232D2F7EB22E2AE030E025C0932D82
:101DA000997FB92E8F36C1F018F4883579F0B5C017
:101DB000803719F0883721F0B0C0E92FE061BE2EDE
:101DC000B4FE0DC0FB2DF460BF2E09C034FE0AC066
:101DD000292F2660B22E06C028E030E005C020E1A1
:101DE00030E002C020E132E0F801B7FE07C06081B8
:101DF0007181828193810C5F1F4F06C06081718168
:101E000080E090E00E5F1F4FA3010E94F90F882E23
:101E10008618FB2DFF773F2E36FE0DC0232D2E7F1B
:101E2000A22E891458F434FE0BC032FC09C0832D55
:101E30008E7EA82E05C0B82CA32C03C0B82C01C0E0
:101E4000B92CA4FE0FC0FE01E80DF11D8081803386
:101E500021F49A2D997EA92E09C0A2FE06C0B39442
:101E6000B39404C08A2D867809F0B394A3FC11C002
:101E7000A0FE06C0B21488F4280C922C9B180EC049
:101E8000B21460F4B60180E290E00E94BD0FB394FA
:101E9000F7CFB21418F42B1802C0982C212CA4FEF2
:101EA00010C0B60180E390E00E94BD0FA2FE17C0F3
:101EB000A1FC03C088E790E002C088E590E0B6018D
:101EC0000CC08A2D867859F0A1FE02C08BE201C0B9
:101ED00080E2A7FC8DE2B60190E00E94BD0F89145C
:101EE00038F4B60180E390E00E94BD0F9A94F7CFDA
:101EF0008A94F301E80DF11D8081B60190E00E9403
:101F0000BD0F8110F5CF222009F442CEB60180E248
:101F100090E00E94BD0F2A94F6CFF601868197814A
:101F200002C08FEF9FEF2B96E2E10C947310FC013F
:101F30000590615070400110D8F7809590958E0FF4
:101F40009F1F0895FC016150704001900110D8F767
:101F5000809590958E0F9F1F0895DC01FC01672FDF
:101F600071917723E1F7329704C07C916D93708370
:101F70006291AE17BF07C8F308950F931F93CF93D5
:101F8000DF93FB01238121FD03C08FEF9FEF2CC066
:101F900022FF16C04681578124813581421753079D
:101FA00044F4A081B1819D012F5F3F4F3183208395
:101FB0008C93268137812F5F3F4F3783268314C050
:101FC0008B01EC01FB010084F185E02D0995892B43
:101FD000E1F6D80116968D919C9117970196179668
:101FE0009C938E931697CE01DF91CF911F910F9105
:101FF0000895FA01AA27283051F1203181F1E8949F
:102000006F936E7F6E5F7F4F8F4F9F4FAF4FB1E0EB
:102010003ED0B4E03CD0670F781F891F9A1FA11DE6
:10202000680F791F8A1F911DA11D6A0F711D811DE7
:10203000911DA11D20D009F468943F912AE0269FAC
:1020400011243019305D3193DEF6CF010895462F0B
:102050004770405D4193B3E00FD0C9F7F6CF462FEC
:102060004F70405D4A3318F0495D31FD4052419355
:1020700002D0A9F7EACFB4E0A69597958795779512
:102080006795BA95C9F700976105710508959B0199
:10209000AC010A2E06945795479537952795BA9522
:1020A000C9F7620F731F841F951FA01D08952F92FB
:1020B0003F924F925F926F927F928F929F92AF92D8
:1020C000BF92CF92DF92EF92FF920F931F93CF9325
:1020D000DF93CDB7DEB7CA1BDB0B0FB6F894DEBFBC
:1020E0000FBECDBF09942A88398848885F846E84E2
:1020F0007D848C849B84AA84B984C884DF80EE802C
:10210000FD800C811B81AA81B981CE0FD11D0FB634
:10211000F894DEBF0FBECDBFED010895F894FFCF58
:1021200014005A002D000000D3FFA6FFA6FFD3FF26
:1021300000002D005A005A005A00CDCC4C3D0AD761
:10214000233C2E00312E2076616C69645F73616DD3
:10215000706C655F74696D656F75743A20000A3242
:102160002E20706F736974696F6E735F613A20001F
:102170000A332E20706F736974696F6E735F623AF1
:1021800020000A342E2072656C656173655F706F84
:10219000736974696F6E5F613A20000A352E207290
:1021A000656C656173655F706F736974696F6E5F8D
:1021B000623A20000A362E20737465705F75703A9B
:1021C00020000A372E20737465705F646F776E3A53
:1021D00020002D0025303364003C002020202020EA
:1021E0002020202020202020202000312E76616C0D
:1021F00069645F73616D706C655F74696D656F753F
:102200007400322E706F736974696F6E735F615FF3
:102210002D3200332E706F736974696F6E735F6255
:102220005F2D3200342E706F736974696F6E735F47
:10223000615F2D3100352E706F736974696F6E7335
:102240005F625F2D3100362E706F736974696F6E37
:10225000735F615F3000372E706F736974696F6EE2
:10226000735F625F3000382E706F736974696F6ED0
:10227000735F615F3100392E706F736974696F6EBF
:10228000735F625F310031302E706F736974696FF4
:102290006E735F615F320031312E706F73697469E4
:1022A0006F6E735F625F320031322E72656C6561F2
:1022B00073655F706F736974696F6E5F610031334E
:1022C0002E72656C656173655F706F736974696F99
:1022D0006E5F620031342E737465705F757000310B
:1022E000352E737465705F646F776E0031362E45DE
:1022F0007869740031202D205072696E7420636FEC
:102300006E6669670A0033202D205361766520636D
:102310006F6E6669670A00456E746572206F70742F
:10232000696F6E3A0A00436F6E6669672073617663
:1023300065640A00496E76616C6964206F70746927
:102340006F6E0A005461726765742073706565640E
:102350003A20004E6F6E652D636F6E74726F6C2045
:10236000646174613A200042616420646174610AAE
:1023700000436F6E666967206C6F616465640A0074
:102380005573696E672064656661756C7420636F50
:102390006E6669670A002300506F733A2000526529
:1023A0006C65617365005365747570206D6F64654D
:0223B00000002B
:00000001FF
