S0120000636F6E74726F6C6C65722E73726563CE
S11300000C9445000C94B8010C9462000C946200AA
S11300100C9462000C9462000C9462000C946001D5
S11300200C9462000C9462000C9462000C946200C4
S11300300C9462000C9462000C9462000C946200B4
S11300400C9462000C9462000C9462000C946200A4
S11300500C9462000C9462000C9462000C94620094
S11300600C9462000C946200E406F2060F072C075D
S1130070490766078307A007BD07DA07F7071408CF
S113008031084E088E08CE08FF0811241FBECFEF9A
S1130090D8E0DEBFCDBF13E0A0E0B1E0E6E6F3E2D6
S11300A002C005900D92A23CB107D9F723E0A2EC5F
S11300B0B3E001C01D92A13DB207E1F70E94300BED
S11300C00C94B1110C9400009093C5008093C4006B
S11300D088E18093C10086E08093C20008959091E6
S11300E0C00095FFFCCF8093C60008950F931F9323
S11300F0CF93DF938C01C0E0D0E003C021960E942F
S11301006F00F801EC0FFD1F80818111F7CFDF91A3
S1130110CF911F910F910895CF93DF93CDB7DEB7A1
S113012060970FB6F894DEBF0FBECDBFAB01BE0122
S11301306F5F7F4F0E947F0ECE0101960E94760072
S113014060960FB6F894DEBF0FBECDBFDF91CF919E
S11301500895CF92DF92EF92FF92CF93DF93CDB7C2
S1130160DEB760970FB6F894DEBF0FBECDBF6B014C
S11301707C010E94A80CDC01CB014AE050E0BE01E6
S11301806F5F7F4F0E947F0ECE0101960E94760022
S113019082E291E00E94760020E030E04AE754E4F5
S11301A0C701B6010E94950D0E94A80CDC01CB0189
S11301B04AE050E0BE016F5F7F4F0E947F0ECE0188
S11301C001960E94760060960FB6F894DEBF0FBECB
S11301D0CDBFDF91CF91FF90EF90DF90CF90089546
S11301E08091C0008823E4F78091C600089580912F
S11301F0C000807808950F931F93CF93DF93CDB7FA
S1130200DEB760970FB6F894DEBF0FBECDBF00E037
S113021010E008C000E010E005C000E010E002C0FB
S113022000E010E00E94F000E1E0F0E0EC0FFD1FC0
S1130230E00FF11F80839981903261F39A3069F362
S11302409D3071F38A3039F08D3029F0803219F005
S11302500F30110561F4E1E0F0E0EC0FFD1FE00F59
S1130260F11F1082CE0101960E94610E03C00F5F40
S11302701F4FD8CF60960FB6F894DEBF0FBECDBF28
S1130280DF91CF911F910F9108958AB18B7F8AB925
S113029082E08093B0008093B10080ED8093B3003E
S11302A0E0E7F0E0808182608083F894E9E6F0E0A2
S11302B08081826080838DB381608DBB7894089542
S11302C01F920F920FB60F9211242F933F934F93C7
S11302D05F938F939F93EF93FF934A9B19C08091F1
S11302E0CD038823A9F090E0019721E030E0A90133
S11302F002C0440F551F8A95E2F7CA012091CB032F
S11303003091CC03822B932B9093CC038093CB031B
S11303108091CD038F5F8093CD038930E0F080918D
S1130320CB039091CC039093D0038093CF0381E0CF
S11303308093CE031092CC031092CB031092CD0382
S1130340E0E7F0E080818D7F80838CB381608CBB9B
S11303508DB381608DBBFF91EF919F918F915F91E0
S11303604F913F912F910F900FBE0F901F901895B2
S11303701F920F920FB60F9211248F93EF93FF9356
S11303808DB38E7F8DBB88E68093B20087B3826085
S113039087BBE0E7F0E0808182608083FF91EF918A
S11303A08F910F900FBE0F901F9018958091CE03E0
S11303B08823E1F31092CE038091CF039091D00370
S11303C008958091CE030895F999FECF92BD81BD21
S11303D08FB381608FBB80B508950F931F93CF9324
S11303E08C01C62FF999FECFC8010E94E4018C1735
S11303F049F012BD01BDC0BD8FB384608FBB8FB304
S113040082608FBBCF911F910F9108950F931F931B
S1130410CF93DF938C0184E291E00E9476006AE03E
S113042070E0F801808191810E948C008EE391E05C
S11304300E94760080E090E012C0EC012196FE015B
S1130440EE0FFF1FE00FF11F6AE070E080819181E1
S11304500E948C0089EE92E00E947600CE018530E5
S113046091055CF380E591E00E947600C0E0D0E065
S113047011C0FE013696EE0FFF1FE00FF11F6AE078
S113048070E0808191810E948C0089EE92E00E944C
S113049076002196C530D10564F382E691E00E948E
S11304A076006AE070E0F801868997890E948C00E2
S11304B08BE791E00E9476006AE070E0F801808D9D
S11304C0918D0E948C0084E991E00E947600F801ED
S11304D0628D738D848D958D0E94A90082EA91E0CE
S11304E00E947600F801668D778D80A191A10E940B
S11304F0A90083E293E00E947600DF91CF911F91DF
S11305000F91089560E080E090E00E94ED0108956D
S11305100F931F93CF93DF938C01F894C0E0D0E046
S113052010C0209731F462E280E090E00E94ED0177
S113053007C0FC013197E00FF11F60810E94ED01BB
S11305402196CE01C332D10560F37894DF91CF9127
S11305501F910F910895DF92EF92FF920F931F93D3
S1130560CF93DF937C01F89480E090E00E94E40153
S113057091E0823209F090E0D92E823281F40AC0EF
S113058087010C0F1D1F2196CE010E94E401F80182
S1130590808302C0C0E0D0E0C232D10588F37894F1
S11305A08D2DDF91CF911F910F91FF90EF90DF90F0
S11305B0089584B1826084B984B1846084B982EA84
S11305C0809380008AE1809381008FE39CE990937B
S11305D087008093860088EE93E09093890080934F
S11305E0880090938B0080938A000895843F21E0D3
S11305F0920728F0813629E0920720F405C084EFA1
S113060091E002C080E699E0880F991F90938900D9
S1130610809388000895843F21E0920728F0813672
S113062029E0920720F405C084EF91E002C080E63F
S113063099E0880F991F90938B0080938A00089506
S1130640853B08F084EB613091F4282F30E0ACE670
S1130650B7E00E943E0E24EB30E040E050E00E9400
S1130660160EC9018C509E4F0E94F6020895282F41
S113067030E0ACE6B7E00E943E0E24EB30E040E010
S113068050E00E94160EC9018C509E4F0E940B032D
S11306900895863A1CF08B351CF403C086EA01C029
S11306A08AE5865A0E9420030895982F92959F7098
S11306B020E2629FB0011124962B906198B995E0D5
S11306C09A95F1F7000098B19F7E98B925E02A9594
S11306D0F1F700008F70682B606168B985E08A9536
S11306E0F1F7000088B18F7E88B98FE891E0019717
S11306F0F1F700C000000895CF93DF93EC0104C02C
S1130700219661E00E94550388818111F9CFDF9120
S1130710CF910895CF93DF93CDB7DEB760970FB62F
S1130720F894DEBF0FBECDBFAB01BE016F5F7F4F3C
S11307300E947F0ECE0101960E947C0360960FB644
S1130740F894DEBF0FBECDBFDF91CF9108958F9295
S11307509F92AF92BF92CF92DF92EF92FF920F934C
S11307601F93CF93DF93CDB7DEB760970FB6F8949E
S1130770DEBF0FBECDBF4B015C0120E030E0A9011C
S11307800E94A30C882344F482EB91E00E947C0332
S1130790B7FAB094B7F8B094C501B4010E94A80C9C
S11307A06B017C014AE050E08E010F5F1F4FB801DE
S11307B0C6010E947F0EC8010E947C0382E291E080
S11307C00E947C03B601DD0C880B990B0E94E00C9F
S11307D09B01AC01C501B4010E94360C20E030E05D
S11307E04AE754E40E94950D0E94A80C7F936F93EE
S11307F084EB91E09F938F931F930F930E94B70E06
S1130800C8010E947C030F900F900F900F900F90DF
S11308100F9060960FB6F894DEBF0FBECDBFDF9188
S1130820CF911F910F91FF90EF90DF90CF90BF90E9
S1130830AF909F908F90089560E081E00E945503EF
S11308408FE39FE10197F1F700C0000008958FEF57
S113085087B918B88FE59AEE0197F1F700C0000048
S113086060E070E083E090E00E9455038FE19EE435
S11308700197F1F700C0000060E070E083E090E0D1
S11308800E9455038FE891E00197F1F700C0000042
S113089060E070E083E090E00E9455038FE19EE405
S11308A00197F1F700C0000060E070E082E090E0A2
S11308B00E9455038FE99FE00197F1F700C0000003
S11308C060E070E088E290E00E9455038FE99FE0C9
S11308D00197F1F700C0000060E070E08CE090E068
S11308E00E9455038FE99FE00197F1F700C00000D3
S11308F060E070E086E090E00E9455038FE99FE09D
S11309000197F1F700C000000E941C040895962F7F
S1130910813011F080E801C080EC60E0890F0E9412
S1130920550308958AB18F7D8AB98BB180628BB9E2
S11309308AB18F7E8AB98BB180618BB98AB18F7B82
S11309408AB98BB180648BB98AB18F778AB98BB13C
S113095080688BB9089589B182958695877091E0F6
S113096089278170089589B182958F7091E08927D4
S11309708170089589B1829586958695837091E0FA
S113098089278170089589B18095881F8827881FD9
S11309900895CF93C62F61E00E94490362E08C2F33
S11309A00E944903CF9108958F929F92AF92BF9274
S11309B0CF92DF92EF92FF920F931F93CF93DF9327
S11309C0EC01CB01BA0120E030E040E85FE30E9493
S11309D0370C20E030E040E05FE30E94950D20E01A
S11309E030E040E850E40E94950D6B017C010E94C8
S11309F0A80C162F01E0060F062E000C770B880BAF
S1130A00990B0E94E00C9B01AC01C701B6010E9446
S1130A10360C6B017C01053014F004E014E0812FE6
S1130A20110F990BFC013196EE0FFF1FEC0FFD1F08
S1130A301081E02F000FFF0BDF011196AA0FBB1FDF
S1130A40AC0FBD1F6C91DC011696AA0FBB1FAC0F37
S1130A50BD1F0C913696EE0FFF1FEC0FFD1FC081DA
S1130A60062E000C770B611B710917FD7395072E79
S1130A70000C880B990B0E94E00CA70196010E94C0
S1130A80950D4B015C01612F110F770B880B990BAE
S1130A900E94E00CA50194010E94370C0E94A80C4E
S1130AA0D62F6C2FCC0F770B601B710907FD739544
S1130AB0072E000C880B990B0E94E00CA7019601ED
S1130AC00E94950D6B017C01602F000F770B880B42
S1130AD0990B0E94E00CA70196010E94370C0E941A
S1130AE0A80CC62F61E08D2F0E94490362E08C2F71
S1130AF00E944903DF91CF911F910F91FF90EF90D6
S1130B00DF90CF90BF90AF909F908F9008950F93F8
S1130B101F93CF938B01FC011082FA0110820E9473
S1130B201C0460E080E00E94870489EB91E00E944D
S1130B307C0361E081E00E94870486EC91E00E94DE
S1130B407C0366E081E00E9487048AEC91E00E94C5
S1130B507C03C0E02AC00E94B304882389F060E0CB
S1130B6081E00E94870489EE92E00E947C0365E0A4
S1130B7081E00E9487048DEC91E00E947C03C0E038
S1130B800E94AB04882389F060E081E00E9487041E
S1130B908DEC91E00E947C0365E081E00E94870473
S1130BA089EE92E00E947C03C1E00E94BA0488238B
S1130BB091F2CC2319F0C8010E9488020E941C04FF
S1130BC0CF911F910F9108958F929F92AF92BF92F0
S1130BD0CF92DF92EF92FF920F931F93CF93DF9305
S1130BE04C017B015A016901E80160E080E00E9448
S1130BF08704C4010E947C0360E081E00E948704B2
S1130C006AE070E0888199810E948A0389EE92E00B
S1130C100E947C03F7018081882391F0F501808193
S1130C20882329F088819981019699838883F60124
S1130C308081882329F08881998101979983888309
S1130C40DF91CF911F910F91FF90EF90DF90CF90A4
S1130C50BF90AF909F908F900895BF92CF92DF92F4
S1130C60EF92FF920F931F93CF93DF9300D0CDB7F2
S1130C70DEB77C018B016A010E94AB0489830E9468
S1130C80B3048A830E94C304B82E6FE081E00E94FB
S1130C908704BB2019F08FEC91E002C081ED91E054
S1130CA00E947C03B11005C0F701608D86890E9403
S1130CB0C9040E94BA04882319F181E09091CA03FF
S1130CC0911180E08093CA03882349F06EE081E0AB
S1130CD00E94870483ED91E00E947C0308C06EE0CB
S1130CE081E00E94870489EE92E00E947C03FFEF7A
S1130CF023EC89E0F15020408040E1F700C000007F
S1130D008091CA03811141C08981882371F08A814D
S1130D10882359F00E94BA04811107C04AEC53E0B9
S1130D20B701C8010E94870590C289818823A9F070
S1130D308091C90390E0019661E170E00E94020E87
S1130D408093C9039FEFE3ECF9E09150E040F04059
S1130D50E1F700C000000E941C048A818823A9F0E6
S1130D608091C90390E0409661E170E00E94020E18
S1130D708093C9032FEF83EC99E021508040904089
S1130D80E1F700C000000E941C048091CA0388237C
S1130D9071F08981811103C08A81882341F060E068
S1130DA081E00E9487048CED92E00E947C03E09134
S1130DB0C9038E2F90E08131910508F033C2FC0104
S1130DC0EC5CFF4F0C94380E87019E012E5F3F4F61
S1130DD0AE014F5F5F4F6AEC73E085ED91E00E94D6
S1130DE0E40520C287010E5F1F4F9E012E5F3F4F17
S1130DF0AE014F5F5F4F6AEC73E08CEE91E00E94AE
S1130E00E4058091CA03882309F40CC2BB2009F4C9
S1130E1009C2F701648582810E94C90403C2870163
S1130E20045F1F4F9E012E5F3F4FAE014F5F5F4F28
S1130E306AEC73E08DEF91E00E94E4058091CA03AF
S1130E40882309F4EFC1BB2009F4ECC1F7016485E0
S1130E5082810E94C904E6C187010C5F1F4F9E0175
S1130E602E5F3F4FAE014F5F5F4F6AEC73E08EE041
S1130E7092E00E94E4058091CA03882309F4D2C158
S1130E80BB2009F4CFC1F701668584810E94C9049F
S1130E90C9C18701025F1F4F9E012E5F3F4FAE0104
S1130EA04F5F5F4F6AEC73E08FE192E00E94E405CC
S1130EB08091CA03882309F4B5C1BB2009F4B2C1E7
S1130EC0F701668584810E94C904ACC187010A5F69
S1130ED01F4F9E012E5F3F4FAE014F5F5F4F6AEC85
S1130EE073E080E392E00E94E4058091CA038823C2
S1130EF009F498C1BB2009F495C1F7016089868182
S1130F000E94C9048FC18701005F1F4F9E012E5F9D
S1130F103F4FAE014F5F5F4F6AEC73E080E492E0B5
S1130F200E94E4058091CA03882309F47BC1BB2095
S1130F3009F478C1F701608986810E94C90472C1ED
S1130F408701085F1F4F9E012E5F3F4FAE014F5F29
S1130F505F4F6AEC73E080E592E00E94E4058091C3
S1130F60CA03882309F45EC1BB2009F45BC1F701FD
S1130F70628980850E94C90455C187010E5E1F4F96
S1130F809E012E5F3F4FAE014F5F5F4F6AEC73E0EF
S1130F9080E692E00E94E4058091CA03882309F464
S1130FA041C1BB2009F43EC1F701628980850E94DA
S1130FB0C90438C18701065F1F4F9E012E5F3F4F52
S1130FC0AE014F5F5F4F6AEC73E080E792E00E94EE
S1130FD0E4058091CA03882309F424C1BB2009F4E1
S1130FE021C1F701648982850E94C9041BC187015C
S1130FF00C5E1F4F9E012E5F3F4FAE014F5F5F4F50
S11310006AEC73E081E892E00E94E4058091CA03EF
S1131010882309F407C1BB2009F404C1F7016489DA
S113102082850E94C904FEC087010A5E1F4F9E018B
S11310302E5F3F4FAE014F5F5F4F6AEC73E082E972
S113104092E00E94E4058091CA03882309F4EAC06F
S1131050BB2009F4E7C0F701608D86890E94C904AA
S1131060E1C08701085E1F4F9E012E5F3F4FAE0116
S11310704F5F5F4F6AEC73E083EA92E00E94E405FD
S11310808091CA03882309F4CDC0BB2009F4CAC0E7
S1131090F701608D86890E94C904C4C060E080E0C5
S11310A00E94870484EB92E00E947C0360E081E06C
S11310B00E948704F701628D738D848D958D0E9443
S11310C0A7038091CA03882309F4ACC089818823CB
S11310D081F02FE632E143E85AE3F701628D738D24
S11310E0848D958D0E94370CF701628F738F848FE6
S11310F0958F8A81882309F495C02FE632E143E86D
S11311005AE3F701628D738D848D958D0E94360CA0
S1131110F701628F738F848F958F84C060E080E0C5
S11311200E9487048FEB92E00E947C0360E081E0E0
S11311300E948704F701668D778D80A191A10E949A
S1131140A7038091CA03882309F46CC0898188238A
S113115081F02FE632E143E85AE3F701668D778D9B
S113116080A191A10E94370CF701668F778F80A32D
S113117091A38A81882309F455C02FE632E143E81C
S11311805AE3F701668D778D80A191A10E94360CF8
S1131190F701668F778F80A391A344C060E080E05D
S11311A00E9487048CEC92E00E947C038091CA0325
S11311B08823C1F11092CA030E94820282E2F601DE
S11311C0D70101900D928A95E1F760E081E00E94D9
S11311D0870485ED92E00E947C03FFEF23ED80E31A
S11311E0F15020408040E1F700C0000060E081E061
S11311F00E9487048BED92E00E947C0313C060E0A0
S113120080E00E9487048BEE92E00E947C03809130
S1131210CA03882339F04AEC53E0B701C8010E949D
S1131220870513C08981811103C08A81882369F0ED
S11312308091CA03882349F09FEFE3ECF9E09150D1
S1131240E040F040E1F700C000000F900F90DF9104
S1131250CF911F910F91FF90EF90DF90CF90BF90AF
S11312600895CF93DF93833629F5EB0183EF92E062
S11312700E94760085E093E00E94760086E193E088
S11312800E9476000E94FB008130910519F00397BB
S113129029F00CC0CE010E9406020CC0CE010E94AF
S11312A0880285E293E00E94760004C083E393E021
S11312B00E947600DF91CF910895CF92DF92EF9252
S11312C0FF920F931F93CF93DF936C01E62EF12CC3
S11312D0C7010197C1E0D0E002C0CC0FDD1F8A95A1
S11312E0E2F700E010E00EC0CE018C219D21892B95
S11312F011F081E301C080E30E946F00D595C7958A
S11313000F5F1F4F0E151F057CF3DF91CF911F91C7
S11313100F91FF90EF90DF90CF900895482F90E0C9
S11313208FEF10C0242F30E0092E02C03595279589
S11313300A94E2F720FF05C08F3F11F4892F01C002
S11313408EEF9F5F953070F308954F925F926F9286
S11313507F928F929F92AF92BF92CF92DF92EF9241
S1131360FF920F931F93CF93C82F5B017A018901DA
S1131370829586958770823009F053C18091C803A5
S1131380C81709F489C0FB01208131818091C6030B
S11313909091C7038217930708F053C0CC2ED12C29
S11313A065E0C6010E945D098AE00E946F008C2FEF
S11313B00E948E098823B4F1682F880F770B880B5D
S11313C0990B0E94E00C20E030E040E05FE30E94D3
S11313D0950D20E030E040E85FE30E94360C609316
S11313E0C2037093C3038093C4039093C503F701AE
S11313F0108283E493E00E9476006091C2037091AE
S1131400C3038091C4039091C5030E94A80CDC011E
S1131410CB016AE070E00E948C0083E293E00E94BA
S1131420760033C08E3F89F582E593E00E94760012
S113143065E0C6010E945D0983E293E00E947600A4
S113144024C01092C2031092C3031092C4031092DA
S1131450C503F801408051806280738027E137EB37
S113146041ED58E3C301B2010E94A30C88236CF43C
S113147027E137EB41ED58EBC301B2010E94900D17
S113148018161CF481E0F7018083C093C8031092FE
S1131490C7031092C60309C08091C6039091C70385
S11314A001969093C7038093C603F801C080D1804E
S11314B0E280F3804090C2035090C3036090C40361
S11314C07090C503A3019201C701B6010E94A30C49
S11314D0882309F4B5C020E030E0A901C701B601B2
S11314E00E94900D18160CF04EC0A3019201C70182
S11314F0B6010E94A30C88231CF5A7019601C30121
S1131500B2010E94360CF501828C938CA48CB58CAC
S1131510A50194010E94A30C882334F4F8014082AD
S11315205182628273828CC0A5019401C701B60105
S11315300E94370CF801608371838283938380C097
S1131540A3019201C701B6010E94360CF501868CF5
S1131550978CA0A0B1A0A50194010E94A30C88239C
S113156034F4F801408251826282738269C0A50119
S11315709401C701B6010E94360CF801608371839F
S1131580828393835DC0A3019201C701B6010E94C7
S1131590A30C88231CF5A7019601C301B2010E9484
S11315A0360CF501868C978CA0A0B1A0A5019401FE
S11315B00E94A30C882334F4F80140825182628291
S11315C073823EC0A5019401C701B6010E94370C85
S11315D0F801608371838283938332C0A3019201F3
S11315E0C701B6010E94360CF501828C938CA48C41
S11315F0B58CA50194010E94A30C882334F4F8014E
S113160040825182628273821BC0A5019401C7018A
S1131610B6010E94360CF801608371838283938340
S11316200FC081E0FA0180831092C2031092C303B9
S11316301092C4031092C50386E693E00E947600DC
S1131640CF911F910F91FF90EF90DF90CF90BF90BB
S1131650AF909F908F907F906F905F904F90089580
S1131660CF93DF93CDB7DEB7CA54D1090FB6F89440
S1131670DEBF0FBECDBF82E2E0E0F1E0DE011196F5
S113168001900D928A95E1F782E2FE013196DE0126
S1131690939601900D928A95E1F780E190E00E9483
S11316A06400CE0183960E94AB02882329F080E770
S11316B093E00E94760004C08FE793E00E947600D6
S11316C0CE0183960E9406020E94D9020E9445011F
S11316D00E9427040E94920429961CAE1DAE1EAEE1
S11316E01FAE299781E02A968FAF2A972B961FAEBB
S11316F02B97F12C0E94F700882339F00E94F00008
S1131700BE016D5D7F4F0E9431092B968FAD2B97E3
S113171081119BC00E94C304E82E0E94E10188232A
S113172071F00E94D601F82E9E012B5B3F4FAE0153
S1131730475B5F4FBE016D5D7F4F0E94A509E110BD
S113174004C081E02A968FAF2A972A968FAD2A97F4
S1131750882329F06BAD89AD0E94C9040AC029967B
S11317604CAD5DAD6EAD7FAD2997CE0183960E94E1
S1131770D40460E080E00E94870404E010E015C017
S11317808F2D90E0002E02C0959587950A94E2F77C
S113179080FF05C085E993E00E947C0304C082EBCE
S11317A091E00E947C030150110911234CF7EE20B3
S11317B019F16BE081E00E94870487E993E00E94BD
S11317C07C0360E081E00E9487042A968FAD2A970B
S11317D0882329F08DE993E00E947C0315C02996A3
S11317E06CAD7DAD8EAD9FAD29970E94A70384EEAD
S11317F092E00E947C0308C060E081E00E948704BC
S113180086EA93E00E947C030E94AB048823E9F0FB
S11318100E94B3048823C9F00E94BA04811115C040
S113182081E02B968FAF2B970E941C0487EB93E0EB
S11318300E947C032FEF83ED90E321508040904081
S1131840E1F700C000000E941C042B968FAD2B977B
S1131850813009F04FCFAE014F5F5F4FBE01665B31
S11318607F4FCE0183960E942D0644CF5058BB274C
S1131870AA270E944E0C0C94560D0E94480D38F075
S11318800E944F0D20F039F49F3F19F426F40C9474
S1131890450D0EF4E095E7FB0C943F0DE92F0E94F3
S11318A0670D58F3BA17620773078407950720F08A
S11318B079F4A6F50C94890D0EF4E0950B2EBA2F4D
S11318C0A02D0B01B90190010C01CA01A001112442
S11318D0FF27591B99F0593F50F4503E68F11A16EE
S11318E0F040A22F232F342F4427585FF3CF46957F
S11318F037952795A795F0405395C9F77EF41F16A1
S1131900BA0B620B730B840BBAF09150A1F0FF0F6A
S1131910BB1F661F771F881FC2F70EC0BA0F621F56
S1131920731F841F48F4879577956795B795F79546
S11319309E3F08F0B0CF9395880F08F09927EE0FDB
S11319409795879508950E941B0D08F481E00895EA
S11319500E94AF0C6894B1110C948A0D08950E94F2
S11319606F0D88F09F5798F0B92F9927B751B0F0B1
S1131970E1F0660F771F881F991F1AF0BA95C9F70F
S113198014C0B13091F00E94890DB1E008950C9417
S1131990890D672F782F8827B85F39F0B93FCCF3CA
S11319A0869577956795B395D9F73EF4909580958C
S11319B0709561957F4F8F4F9F4F0895E89409C0AC
S11319C097FB3EF490958095709561957F4F8F4F6E
S11319D09F4F9923A9F0F92F96E9BB279395F69584
S11319E0879577956795B795F111F8CFFAF4BB0F02
S11319F011F460FF1BC06F5F7F4F8F4F9F4F16C066
S1131A00882311F096E911C0772321F09EE8872FEF
S1131A10762F05C0662371F096E8862F70E060E0AB
S1131A202AF09A95660F771F881FDAF7880F969524
S1131A30879597F90895990F0008550FAA0BE0E8C8
S1131A40FEEF16161706E807F907C0F0121613067C
S1131A50E407F50798F0621B730B840B950B39F4BC
S1131A600A2661F0232B242B252B21F408950A2622
S1131A7009F4A140A6958FEF811D811D089597F962
S1131A809F6780E870E060E008959FEF80EC089520
S1131A9000240A9416161706180609060895002449
S1131AA00A9412161306140605060895092E0394C3
S1131AB0000C11F4882352F0BB0F40F4BF2B11F437
S1131AC060FF04C06F5F7F4F8F4F9F4F089557FD96
S1131AD09058440F551F59F05F3F71F04795880F98
S1131AE097FB991F61F09F3F79F08795089512162F
S1131AF013061406551FF2CF4695F1DF08C01616DB
S1131B0017061806991FF1CF86957105610508948B
S1131B100895E894BB2766277727CB0197F90895A2
S1131B200E941B0D08F48FEF08950E94A80D0C94D9
S1131B30560D0E94480D38F00E944F0D20F0952359
S1131B4011F00C943F0D0C94450D11240C948A0D46
S1131B500E94670D70F3959FC1F3950F50E0551FD8
S1131B60629FF001729FBB27F00DB11D639FAA27EE
S1131B70F00DB11DAA1F649F6627B00DA11D661F3D
S1131B80829F2227B00DA11D621F739FB00DA11D5E
S1131B90621F839FA00D611D221F749F3327A00D18
S1131BA0611D231F849F600D211D822F762F6A2FB4
S1131BB011249F5750409AF0F1F088234AF0EE0F19
S1131BC0FF1FBB1F661F771F881F91505040A9F746
S1131BD09E3F510580F00C943F0D0C948A0D5F3F9D
S1131BE0E4F3983ED4F3869577956795B795F79582
S1131BF0E7959F5FC1F7FE2B880F911D96958795FA
S1131C0097F9089597FB072E16F4009407D077FDF3
S1131C1009D00E944D0E07FC05D03EF490958195A5
S1131C209F4F0895709561957F4F0895A1E21A2EF4
S1131C30AA1BBB1BFD010DC0AA1FBB1FEE1FFF1F6C
S1131C40A217B307E407F50720F0A21BB30BE40BBC
S1131C50F50B661F771F881F991F1A9469F7609503
S1131C607095809590959B01AC01BD01CF010895BD
S1131C70EE0FFF1F0590F491E02D0994A29FB0018F
S1131C80B39FC001A39F700D811D1124911DB29FAC
S1131C90700D811D1124911D0895AA1BBB1B51E1D8
S1131CA007C0AA1FBB1FA617B70710F0A61BB70BC8
S1131CB0881F991F5A95A9F780959095BC01CD016D
S1131CC00895FC0188279927E89421912032E9F3AB
S1131CD0293010F02E30C8F32B3241F02D3239F474
S1131CE0689404C00E94950E820F911D2191205387
S1131CF02A30C0F31EF4909581959F4F0895453284
S1131D00510520F4423010F00C948A0EFB0110822D
S1131D10CB010895BB274A3031F4992322F4BDE264
S1131D20909581959F4F0C949E0E7AE0979F902DED
S1131D30879F802D910D11240895BB27FB01552702
S1131D40AA27880F991FAA1FA41710F0A41B839514
S1131D505051B9F7A05DAA3308F0A95DA19300978B
S1131D6079F7B111B1931192CB010C94D010AEE07C
S1131D70B0E0EDEBFEE00C9488110D891E8986E03D
S1131D808C831A8309838FEF9FE79E838D83AE0133
S1131D90475E5F4F6F89788DCE0101960E94D90E00
S1131DA0EF81F885E00FF11F10822E96E4E00C9489
S1131DB0A411ABE0B0E0EFEDFEE00C947A116C01FD
S1131DC07B018A01FC0117821682838181FFCCC1C9
S1131DD0CE0101963C01F6019381F70193FD8591B3
S1131DE093FF81917F01882309F4BAC1853239F4C4
S1131DF093FD859193FF81917F01853229F4B6018A
S1131E0090E00E94E010E7CF912C212C312CFFE1CF
S1131E10F315D8F08B3279F038F4803279F08332CC
S1131E20A1F4232D20611DC08D3261F0803369F44B
S1131E30232D216016C0832D8260382EE32DE460AB
S1131E403E2E2AC0F32DF8601DC037FC2DC020EDB6
S1131E50280F2A3040F08E32B9F436FC81C1232D8C
S1131E602064322E19C036FE06C08AE0989E200DEA
S1131E701124922E11C0EAE02E9E200D1124222E50
S1131E80F32DF0623F2E08C08C3621F4832D806838
S1131E90382E02C0883641F4F70193FD859193FFF3
S1131EA081917F018111B3CF982F9F7D95549330F9
S1131EB028F40C5F1F4F9FE399830DC0833631F0E4
S1131EC0833771F0833509F059C021C0F80180814E
S1131ED089830E5F1F4F88248394912C530113C070
S1131EE02801F2E04F0E511CF801A080B18036FEAB
S1131EF003C0692D70E002C06FEF7FEFC5010E943F
S1131F00C5104C018201F32DFF773F2E16C0280126
S1131F1022E0420E511CF801A080B18036FE03C0BD
S1131F20692D70E002C06FEF7FEFC5010E94BA1007
S1131F304C01F32DF0683F2E820133FC1BC0822D2F
S1131F4090E088169906B0F4B60180E290E00E9411
S1131F50E0102A94F4CFF50137FC859137FE819186
S1131F605F01B60190E00E94E01021102A9421E064
S1131F70821A91088114910471F7E8C0843611F033
S1131F80893641F5F80137FE07C06081718182818D
S1131F9093810C5F1F4F08C060817181072E000C74
S1131FA0880B990B0E5F1F4FF32DFF763F2E97FF83
S1131FB009C090958095709561957F4F8F4F9F4F85
S1131FC0F0683F2E2AE030E0A3010E941C11882E05
S1131FD0861845C0853731F4232D2F7EB22E2AE092
S1131FE030E025C0932D997FB92E8F36C1F018F4B7
S1131FF0883579F0B5C0803719F0883721F0B0C042
S1132000E92FE061BE2EB4FE0DC0FB2DF460BF2E9F
S113201009C034FE0AC0292F2660B22E06C028E06B
S113202030E005C020E130E002C020E132E0F801F8
S1132030B7FE07C060817181828193810C5F1F4F5D
S113204006C06081718180E090E00E5F1F4FA301A4
S11320500E941C11882E8618FB2DFF773F2E36FE1A
S11320600DC0232D2E7FA22E891458F434FE0BC0EC
S113207032FC09C0832D8E7EA82E05C0B82CA32C5B
S113208003C0B82C01C0B92CA4FE0FC0FE01E80D9A
S1132090F11D8081803321F49A2D997EA92E09C0E7
S11320A0A2FE06C0B394B39404C08A2D867809F0C6
S11320B0B394A3FC11C0A0FE06C0B21488F4280C8B
S11320C0922C9B180EC0B21460F4B60180E290E02A
S11320D00E94E010B394F7CFB21418F42B1802C086
S11320E0982C212CA4FE10C0B60180E390E00E943D
S11320F0E010A2FE17C0A1FC03C088E790E002C074
S113210088E590E0B6010CC08A2D867859F0A1FECE
S113211002C08BE201C080E2A7FC8DE2B60190E030
S11321200E94E010891438F4B60180E390E00E9424
S1132130E0109A94F7CF8A94F301E80DF11D8081A1
S1132140B60190E00E94E0108110F5CF222009F43E
S113215042CEB60180E290E00E94E0102A94F6CFCD
S1132160F6018681978102C08FEF9FEF2B96E2E103
S11321700C949611FC010590615070400110D8F741
S1132180809590958E0F9F1F0895FC0161507040BB
S113219001900110D8F7809590958E0F9F1F089598
S11321A0DC01FC01672F71917723E1F7329704C0BA
S11321B07C916D9370836291AE17BF07C8F3089545
S11321C00F931F93CF93DF93FB01238121FD03C062
S11321D08FEF9FEF2CC022FF16C0468157812481C8
S11321E035814217530744F4A081B1819D012F5FCB
S11321F03F4F318320838C93268137812F5F3F4F5C
S11322003783268314C08B01EC01FB010084F18524
S1132210E02D0995892BE1F6D80116968D919C91B4
S11322201797019617969C938E931697CE01DF917C
S1132230CF911F910F910895FA01AA27283051F1E7
S1132240203181F1E8946F936E7F6E5F7F4F8F4FE3
S11322509F4FAF4FB1E03ED0B4E03CD0670F781F42
S1132260891F9A1FA11D680F791F8A1F911DA11D27
S11322706A0F711D811D911DA11D20D009F4689460
S11322803F912AE0269F11243019305D3193DEF608
S1132290CF010895462F4770405D4193B3E00FD0BE
S11322A0C9F7F6CF462F4F70405D4A3318F0495DA9
S11322B031FD4052419302D0A9F7EACFB4E0A6958C
S11322C09795879577956795BA95C9F700976105AE
S11322D0710508959B01AC010A2E06945795479504
S11322E037952795BA95C9F7620F731F841F951FF9
S11322F0A01D08952F923F924F925F926F927F920A
S11323008F929F92AF92BF92CF92DF92EF92FF9201
S11323100F931F93CF93DF93CDB7DEB7CA1BDB0BAD
S11323200FB6F894DEBF0FBECDBF09942A88398852
S113233048885F846E847D848C849B84AA84B98459
S1132340C884DF80EE80FD800C811B81AA81B98165
S1132350CE0FD11D0FB6F894DEBF0FBECDBFED0179
S10923600895F894FFCF7C
S113236614002D0016000000EAFFD3FF2D0016000E
S11323760000EAFFD3FF2D00D3FFCDCC4C3D0AD796
S1132386233C2E00312E2076616C69645F73616D87
S1132396706C655F74696D656F75743A20000A32F6
S11323A62E20706F736974696F6E735F613A2000D3
S11323B60A332E20706F736974696F6E735F623AA5
S11323C620000A342E2072656C656173655F706F38
S11323D6736974696F6E5F613A20000A352E207244
S11323E6656C656173655F706F736974696F6E5F41
S11323F6623A20000A362E20737465705F75703A4F
S113240620000A372E20737465705F646F776E3A06
S113241620002D0025303364005361766520636FF8
S11324266E6669673F00596573004E6F003E004152
S11324360044003C00312E76616C69645F73616D03
S1132446706C655F74696D656F757400322E706F9C
S1132456736974696F6E735F615F2D3200332E701A
S11324666F736974696F6E735F625F2D3200342E09
S1132476706F736974696F6E735F615F2D310035B8
S11324862E706F736974696F6E735F625F2D3100AE
S1132496362E706F736974696F6E735F615F300097
S11324A6372E706F736974696F6E735F625F300085
S11324B6382E706F736974696F6E735F615F310074
S11324C6392E706F736974696F6E735F625F310062
S11324D631302E706F736974696F6E735F615F322A
S11324E60031312E706F736974696F6E735F625F4A
S11324F6320031322E72656C656173655F706F737D
S11325065F610031332E72656C656173655F706F50
S1132516735F620031342E737465705F75700031B9
S1132526352E737465705F646F776E0031362E5284
S11325366573657400446F6E652100202020202099
S1132546202020202020202020200031372E4578EE
S113255669740031202D205072696E7420636F6E89
S11325666669670A0033202D205361766520636F00
S11325766E6669670A00456E746572206F707469C9
S11325866F6E3A0A00436F6E6669672073617665FB
S1132596640A00496E76616C6964206F7074696FB1
S11325A66E0A005461726765742073706565643AD7
S11325B620004E6F6E652D636F6E74726F6C2064AF
S11325C66174613A200042616420646174610A00A6
S11325D6436F6E666967206C6F616465640A0055B3
S11325E673696E672064656661756C7420636F6ECB
S11325F66669670A00230041726D65640052656C62
S113260665617365200044697361726D6564202099
S1132616202020202020005365747570206D6F647F
S1052626650049
S9030000FC
